:10000000BAC00000D3C00000D1C00000CFC00000C3
:10001000CDC00000CBC00000C9C00000C7C00000B8
:10002000C5C00000C3C00000D4C400000DC500005E
:10003000BDC00000BBC00000B9C00000B7C00000D8
:10004000B5C00000B3C00000B1C00000AFC00000E8
:10005000ADC00000ABC00000A9C00000A7C00000F8
:10006000A5C00000A3C00000A1C000009FC0000008
:100070009DC000009BC0000099C0000097C0000018
:1000800095C0000093C0000091C000008FC0000028
:100090008DC000008BC0000089C0000087C0000038
:1000A00085C0000083C0000081C000000001000086
:1000B000E0001200020000F20043000300003501DE
:1000C0000401030904390114020309044F01160352
:1000D00003090467010C0001C11201803601813659
:1000E0001201000202000010C0167A040001010291
:1000F000030109024300020100C0320904000001AB
:10010000020201000524001001052401010104245C
:1001100002060524060001070582031000400904B9
:100120000100020A00000007050302400000070565
:10013000840240000004030904140359006F007591
:1001400000720020004E0061006D00650000001686
:1001500003550053004200200053006500720069FF
:100160000061006C0000000C0331003200330034E9
:1001700000350000000011241FBECFEFDAE0DEBF23
:10018000CDBF11E0A0E0B1E0E2E2FDE002C00590E9
:100190000D92A231B107D9F711E0A2E1B1E001C09F
:1001A0001D92AA32B107E1F72CD0B9C529CF88E05A
:1001B00084B91CBC8CB580648CBD8CB580628CBD50
:1001C0008CB588608CBD8CB584608CBD0895982FEB
:1001D0002F9A8DB581118EB59EBD5F9890E025E078
:1001E00008C0822F8A95F1F79F5F993C11F48AEA43
:1001F00008950DB407FEF5CF5F9A61112F988EB563
:1002000008954F925F926F927F928F929F92AF92DA
:10021000BF92CF92DF92EF92FF920F931F93DF93E3
:10022000CF930F92CDB7DEB714B8289A80E88093A9
:10023000610010926100569A5E9AB9DF279A2F9A50
:10024000579A19D380E197E220E931E0F90131971B
:10025000F1F70197D9F768D300E04424552421E051
:100260002983FF24FA9475E0C72E64E0B62E56E089
:10027000A52EEE24E39442E0942E31E4D32E2AE618
:10028000822E99E7792E83E7682E5F9A2F9AFEBC1B
:10029000189B80C080912401909125010196909334
:1002A0002501809324018053954714F1D0920801D1
:1002B000F0920901F0920A0110922101109220019E
:1002C00010922501109224010894411C511CF6E063
:1002D0004F1651046CF02981213029F45E98442492
:1002E0005524198205C05E9A4424552481E08983EF
:1002F00000D3882309F44AC05E9AD6D29C0197FDA8
:1003000041C090912201933031F1943028F4913022
:1003100081F09230C0F407C0953041F1953000F182
:100320009630A1F528C02A35310571F5E0922201F9
:100330002DC080910001822380930001209302014F
:100340009092220123C080910101822380930101B8
:100350002093030107C020930601B092220116C02A
:10036000209307019F5F9093220110C02093040106
:10037000A09222010BC02093050110922201E0926D
:10038000230104C01092220188E7E1D28C2D8A95C6
:10039000F1F77BCF1092250110922401909100017A
:1003A000892F94FD03C0F092160102C0109216012D
:1003B00085FD03C0F092140102C01092140186FD65
:1003C00003C0F092170102C01092170197FD03C0FD
:1003D000F092150102C01092150190910101892F30
:1003E00090FD03C0F0921E0102C010921E0181FD1B
:1003F00003C0F0921F0102C010921F0182FD03C0D2
:10040000F0921C0102C010921C0183FD03C0F09207
:100410001D0102C010921D0184FD03C0F09218015D
:1004200002C01092180185FD03C0F0921B0102C0AA
:1004300010921B0186FD03C0F0921A0102C01092B7
:100440001A0197FD03C0F092190102C01092190120
:10045000F8945E9A5F988FEF61E0B9DE5F9A813021
:1004600009F0DDC180912001882309F412C183EFD6
:1004700061E0ADDE182F8AE561E0A9DE163409F4EB
:100480008FC0173490F4133409F43FC0143430F49F
:100490001034D9F0113409F0C2C120C0143409F469
:1004A0004DC0153409F0BBC168C01C3409F4A5C0A7
:1004B0001D3420F4173409F0B2C194C01D3409F47E
:1004C000BBC01F3409F0ABC1D0C080E061E07FDE6B
:1004D000082F80E061E07BDE82E0D1C080912101C5
:1004E000813041F48FEF61E072DE8FEF61E06FDE0B
:1004F00083E0C5C080E061E06ADE80E061E067DE45
:1005000080E061E064DE80E085C080E061E05FDE85
:10051000082F80E061E05BDE80E061E058DE80E093
:1005200061E055DE80E061E052DE80E060E04FDEB9
:10053000002309F074C11092200171C180E061E0D4
:1005400046DE082F80E061E042DE80E061E03FDED1
:1005500080E061E03CDE80E061E039DE80E060E088
:1005600036DE013029F4609208010093210157C161
:10057000D09208011092210152C183E061E027DE90
:10058000082F82E061E023DE80912101813009F0B3
:1005900080E061E01CDE82E061E019DE81E03DC0C8
:1005A00080E061E014DE082F882359F480E061E0E8
:1005B0000EDE81E061E00BDE82E061E008DE80E0DB
:1005C0000DC0813009F02BC180E061E000DE81E0E8
:1005D00061E0FDDD81E061E0FADD81E061E0F7DD11
:1005E0008FE040C080E061E0F2DD80E061E0EFDDBF
:1005F00082E061E0ECDD80E0CFCF80E061E0E7DD2C
:10060000082F882371F480E061E0E1DD80E061E0A3
:10061000DEDD84E061E0DBDD80E061E0D8DD80E00C
:1006200021C0813009F0FBC080E061E0D0DD80E0D6
:1006300061E0CDDD87E0EECF8091090161E0C7DDAB
:100640008093090180910A0161E0C1DD80930A0174
:100650008FEF61E0BCDD8FEF61E0B9DD8FEF61E02E
:10066000B6DD8FEF60E0B3DDDAC07092080180E0A4
:1006700061E0ADDD082F80E061E0A9DD80E061E0B0
:10068000A6DD80E061E0A3DD80E061E0A0DD8AE539
:10069000E9CF5F988091080161E099DD182F8AE524
:1006A00061E095DD80910801813449F48091000179
:1006B00061E08DDD082F8091010160E088DD80918F
:1006C0000801833759F58091000161E080DD082F32
:1006D0008A3A09F4A4C08091010161E078DD8A3A88
:1006E00009F49DC08091060161E071DD8A3A09F448
:1006F00096C08091070161E06ADD8A3A09F48FC0F3
:100700008091040161E063DD8A3A09F488C0809138
:10071000050160E05CDD8A3A09F481C0809108013E
:10072000893709F076C08091000161E050DD082F23
:100730008A3A09F474C08091010161E048DD8A3A87
:1007400009F46DC08091060161E041DD8A3A09F447
:1007500066C08091070161E03ADD8A3A09F45FC022
:100760008091040161E033DD8A3A09F458C0809138
:10077000050161E02CDD8A3A09F451C08091140131
:1007800061E025DD8A3A09F44AC08091150161E0F3
:100790001EDD8A3A09F443C08091160161E017DD3D
:1007A0008A3A09F43CC08091170161E010DD8A3A71
:1007B000B1F18091180161E00ADD8A3A81F18091FE
:1007C0001B0161E004DD8A3A51F180911A0161E078
:1007D000FEDC8A3A21F18091190161E0F8DC8A3A65
:1007E000F1F080911C0161E0F2DC8A3AC1F0809165
:1007F0001D0161E0ECDC8A3A91F080911E0161E01C
:10080000E6DC8A3A61F080911F0160E0E0DC8A3A20
:1008100031F0133421F4013011F4009320015F9A78
:100820002F9A809100018F3F29F4809101018F3F21
:1008300009F45E9880910201809300018091030188
:1008400080930101789480912301813041F48BE6FB
:100850007ED01092230103C0882D8A95F1F7189B52
:10086000FBCF809112019091130101969093130197
:10087000809312010ACD81E08093D70080EA8093B3
:10088000D80082E189BD09B400FEFDCF80E98093E4
:10089000D8001092E00010922601109227018CE0FF
:1008A0008093E200789408952FB7F8948091260100
:1008B000882369F083E08093E9009BE68091E8005B
:1008C00085FD09C082FF03C09093E800F7CF2FBFDA
:1008D0002FEF3FEF0CC09091F1008091E80085FD73
:1008E00003C08BE68093E8002FBF292F30E0C901B9
:1008F00008952FB7F89480912601882311F490E091
:1009000010C083E08093E9009091F200992349F4AC
:100910008091E80082FF05C085FD03C08BE68093CF
:10092000E8002FBF892F089580912601882371F058
:100930009FB7F89483E08093E9002BE602C02093F0
:10094000E8008091E80085FDFACF9FBF0895482F09
:10095000809126018823D9F12FB7F89484E0809301
:10096000E90080912901882341F08091E80085FD0C
:1009700002C02FBF12C0109229019091E400975E2F
:1009800034E08091E80085FD13C02FBF8091E40022
:10099000891729F481E0809329018FEF08958091D0
:1009A00026018823A1F02FB7F8943093E900E9CF0E
:1009B0004093F1008091E80085FD03C08AE38093B5
:1009C000E80085E0809328012FBF80E008958FEF35
:1009D00008951F920F920FB60F9211248F939F9339
:1009E0008091E1001092E100982F83FF11C01092D6
:1009F000E90081E08093EB001092EC0082E18093AB
:100A0000ED0088E08093F0001092260110922701FB
:100A100092FF13C080912601882379F080912801EC
:100A2000882359F0815080932801882331F484E091
:100A30008093E9008AE38093E8009F918F910F9063
:100A40000FBE0F901F9018951F920F920FB60F9226
:100A500011240F931F932F933F934F935F936F93A3
:100A60007F938F939F93AF93BF93EF93FF931092D6
:100A7000E9008091E80083FF3CC14091F100309192
:100A8000F1008091F100682F70E02091F100922F29
:100A900080E0682B792B8091F100A82FB0E02091A5
:100AA000F100922F80E0A82BB92B1091F10000915A
:100AB000F10082EF8093E800363009F05AC023EB52
:100AC00030E0A90145505040F90137978591949144
:100AD0008617970701F5FA01859194918A179B076C
:100AE000D1F49A012E5F3F4FF901659174912E5F09
:100AF0003F4FF9014491212F30E0902F80E0282BC7
:100B0000392B2F3F310519F010F02FEF30E024176B
:100B100058F4422F09C0295F3F4F495F5F4FF0E013
:100B20002D3D3F0789F6E5C05EEF8091E800282F54
:100B300030E0C90185709070892BB9F322FDDCC0CB
:100B4000342F413108F030E1232FCB0106C0FC01E6
:100B50000196E491E093F10021502223C1F7630F45
:100B6000711D431B5093E8004423F9F63031E9F23C
:100B7000C3C0353061F48EEF8093E8008091E800C7
:100B800080FFFCCF862F80688093E300B5C03930AA
:100B900051F5442309F0ADC060932601109227015E
:100BA000109228018EEF8093E80086ED90E021E01E
:100BB0002093E900FC010196E491E093EB00EE2321
:100BC00069F0AC014F5F5F4FFC0184918093EC00B2
:100BD000CA010196FA0134913093ED002F5F253060
:100BE00039F78EE181C0383061F4403809F081C0B6
:100BF0008091E80080FFFCCF809126018093F10076
:100C000050C0313289F4413A09F073C08091E80054
:100C100080FFFCCFEBE0F1E081918093F10081E077
:100C2000E231F807C9F73DC03032A1F4413209F092
:100C300060C08091E80082FFFCCFEBE0F1E08091A2
:100C4000F100819381E0E231F807C9F78BEF8093DF
:100C5000E80027C0323251F4413209F04AC06093B3
:100C600027018091E80080FFFCCF1BC03323E9F40B
:100C70008091E80080FFFCCF423811F080E00DC089
:100C8000A093E9008091EB0090E025E09695879590
:100C90002A95E1F781701092E9008093F10010929B
:100CA000F1008EEF8093E80027C0313011F033302F
:100CB00001F54230F1F4672BE1F42A2F2F77822FD0
:100CC00081508430B0F48EEF8093E8002093E900E7
:100CD000333079F089E18093EB0081E090E002C04D
:100CE000880F991F2A95E2F78093EA001092EA0094
:100CF00003C081E28093EB00FF91EF91BF91AF9130
:100D00009F918F917F916F915F914F913F912F9123
:100D10001F910F910F900FBE0F901F901895F89490
:020D2000FFCF03
:100D2200FFFFFFFF8080808041FFFF00E1000000A5
:020D32000008B7
:00000001FF
